:020000040800F2
:100000001807002091010008E1230008E31D000803
:10001000DD2300084D040008A927000800000000A7
:100020000000000000000000000000001124000893
:100030005104000800000000E52300081324000814
:10004000AB010008AB010008AB010008AB010008E0
:10005000AB010008AB01000835050008AB01000842
:10006000AB010008AB010008AB010008AB010008C0
:10007000AB010008AB010008AB010008AB010008B0
:10008000AB010008AB010008AB010008AB010008A0
:10009000AB010008AB010008AB010008AB01000890
:1000A000AB010008AB010008AB010008AB01000880
:1000B000AB010008AB010008AB010008AB01000870
:1000C000AB010008AB010008AB010008AB01000860
:1000D000AB01000899270008AB010008AB0100083C
:1000E000AB010008AB010008AB01000800F002F80A
:1000F00000F03FF80AA090E8000C82448344AAF183
:100100000107DA4501D100F034F8AFF2090EBAE880
:100110000F0013F0010F18BFFB1A43F0010318473B
:10012000F027000010280000103A24BF78C878C1DA
:10013000FAD8520724BF30C830C144BF04680C60ED
:10014000704700000023002400250026103A28BF35
:1001500078C1FBD8520728BF30C148BF0B60704739
:10016000732900F00F81002070471FB51FBD10B527
:1001700010BD00F039F91146FFF7F7FF02F04CFB14
:1001800000F057F903B4FFF7F2FF03BC02F02AFBBB
:100190000948804709480047FEE7FEE7FEE7FEE71B
:1001A000FEE7FEE7FEE7FEE7FEE7FEE70448054957
:1001B000054A064B7047000081240008ED00000846
:1001C0001801002018070020180300201803002041
:1001D000704700000FB4044910B503AA029800F05C
:1001E000D5F810BC5DF814FB040000202DE9F041A7
:1001F0000E460446002020622046E168884730B35E
:10020000252805D0D4E901219047206A401CF2E757
:10021000E168204600278847050018D0A5F1410075
:10022000192802D820354FF4006732462946204667
:100230002760FFF795FF40B1012804D0F61D26F096
:1002400007060836D8E7361DD6E72846DAE7206ADB
:10025000BDE8F08170B50C460546012A05D0287826
:10026000800600D5EA69002302E0012305E05B1C5B
:10027000934202D2E05C0028F9D1A869E618C01ABE
:10028000A861286A184428622846AFF3008004E079
:10029000D5E9012114F8010B9047B442F8D3284660
:1002A000AFF3008070BD10B5203AC0F00B80B1E80C
:1002B0001850203AA0E81850B1E81850A0E818509B
:1002C000BFF4F5AF5FEA027C24BFB1E81850A0E8A4
:1002D000185044BF18C918C0BDE810405FEA827CBE
:1002E00024BF51F8043B40F8043B08BF7047D207D5
:1002F00028BF31F8023B48BF11F8012B28BF20F876
:10030000023B48BF00F8012B70474FF0000200B5D8
:10031000134694469646203922BFA0E80C50A0E828
:100320000C50B1F12001BFF4F7AF090728BFA0E8D6
:100330000C5048BF0CC05DF804EB890028BF40F8A2
:10034000042B08BF704748BF20F8022B11F0804FE4
:1003500018BF00F8012B704770477047704770470F
:1003600010B5436913B1AFF3008001E0FFF772FFEE
:10037000012010BD127800F124010A7000224A7099
:100380000122EDE711684FF0FF32E9E7074B70B546
:100390000D467B4400F011F80446284600F020F892
:1003A00010B14FF0FF3070BD204670BD53240000E7
:1003B00001694A1C02610878704700B58FB0CDE929
:1003C00001310021059105497944CDE90310114619
:1003D0006846FFF70BFF0FB000BD0000E5FFFFFF11
:1003E000007B00F080007047754600F02BF8AE46A9
:1003F00005006946534620F00700854618B020B531
:10040000FFF7D4FEBDE820404FF000064FF0000794
:100410004FF000084FF0000B21F00701AC46ACE8AC
:10042000C009ACE8C009ACE8C009ACE8C0098D4619
:10043000704710B50446AFF300802046BDE8104079
:10044000FFF7A0BE00487047B400002000BFFEE7E1
:10045000704700007FB504460D46E0B28DF80400F9
:1004600001264FF49670334601AAA02100900C4853
:1004700000F046FD08B100F062F800BF084800F047
:10048000A7FA2028FAD14FF4967001232A46A12119
:100490000090034800F088FB08B100F050F87FBDE1
:1004A000600000202DE9F04105460E461746002465
:1004B00007E031192846FFF7CDFF681C85B2601CA4
:1004C000C4B2BC42F5DBBDE8F08100007FB5044654
:1004D0000D46E0B28DF804008DF80550022640F676
:1004E000B830334601AAA0210090064800F008FD6C
:1004F00008B100F024F800BF024800F069FA202893
:10050000FAD17FBD600000202DE9F04105460E467E
:10051000174600240AE0315D2846FFF7D7FF681C24
:1005200085B20A2000F092F8601C84B2BC42F2DB73
:10053000BDE8F08110B5012000F0A6F810BD72B63C
:1005400000BFFEE70146002291F82100022808D0F2
:100550000420886300BF002081F8200000BF012034
:1005600070470868006820F00E000B681860086883
:10057000006820F001000B68186091F840300120FD
:100580009840CB6B5860012081F8210000BF00200B
:1005900081F8200000BF1046E2E7000070B5044675
:1005A000002594F82100022803D00420A06301252F
:1005B00048E02068006820F00E002168086020688C
:1005C000006820F00100216808601F492068884207
:1005D00001D1012026E01C4914312068884201D154
:1005E00010201FE0184928312068884201D1801569
:1005F00018E015493C312068884201D1801411E08F
:10060000114950312068884202D14FF4803009E00E
:100610000D4964312068884202D14FF4801001E016
:100620004FF08070084908394860012084F82100A3
:1006300000BF002084F8200000BF606B10B120468E
:10064000616B8847284670BD0800024070B50446BB
:1006500000F0B8F906462546681C10B10448007839
:10066000054400BF00F0AEF9801BA842FAD370BD6C
:1006700014000020012804D102490978C943014A25
:10068000117070470000002010B50446044800684F
:10069000204020B1024804602046FFF7EBFF10BD68
:1006A000140401402DE9F8470346002294466EE108
:1006B0004FF0010808FA02F4D1F8008008EA0400BB
:1006C000A0427DD1DFF8DCA2D1F80480A8EB0A09B2
:1006D000D0453AD014DCB8F1030F50D009DCB8F1A2
:1006E000000F31D0B8F1010F1CD0B8F1020F49D181
:1006F00020E0B8F1110F18D0B8F1120F42D11EE06E
:10070000B9F5881F25D006DCB9F5803F20D0B9F5B2
:10071000801F37D11AE0B9F5001F18D0B9F5041FB2
:1007200030D117E0D1F80CC02DE0D1F80C8008F1E1
:10073000040C28E0D1F80C8008F1080C23E0D1F873
:100740000C8008F10C0C1EE000BF00BF00BF00BF12
:1007500000BF00BFD1F80880B8F1000F02D14FF000
:10076000040C0BE0D1F80880B8F1010F03D14FF071
:10077000080C1C6102E04FF0080C5C6103E04FF0D4
:10078000000C00E000BF00BFFF2801D8984601E040
:1007900003F104084646FF2802D84FEA820803E026
:1007A000A2F108084FEA88084746D6F800804FF0C3
:1007B0000F0909FA07F928EA09080CFA07F900E015
:1007C00088E048EA0908C6F80080D1F8048008F0FB
:1007D0008058B8F1805F7DD100BFDFF8CC81D8F8B8
:1007E000188048F00108DFF8C091C9F81880C846A1
:1007F000D8F8188008F00108CDF8008000BF00BFCD
:100800004FEAB9384FEA920958F829504FEA8278EE
:100810004FEA18794FF00F0808FA09F825EA080599
:10082000DFF88881434502D14FF0000816E0DFF879
:100830008081434502D14FF001080FE0DFF8748159
:10084000434502D14FF0020808E0DFF86C814345D0
:1008500002D14FF0030801E04FF004084FEA82791B
:100860004FEA197908FA09F848EA0505DFF84C81DA
:100870004FEA920948F82950D1F8048008F48038EA
:10088000B8F5803F0AD1DFF83881D8F8008048EA0F
:100890000008DFF82C91C9F8008009E0DFF820811A
:1008A000D8F8008028EA0008DFF81491C9F8008021
:1008B000D1F8048008F40038B8F5003F10D1DFF813
:1008C000008108F10408D8F8008048EA0008DFF841
:1008D000F09000E05AE009F10409C9F800800DE049
:1008E000DFF8DC8008F10408D8F8008028EA000866
:1008F000DFF8CC9009F10409C9F80080D1F8048030
:1009000008F48018B8F5801F0ED1DFF8B48008F124
:100910000808D8F8008048EA0008DFF8A49009F138
:100920000809C9F800800DE0DFF8948008F1080894
:10093000D8F8008028EA0008DFF8849009F1080957
:10094000C9F80080D1F8048008F40018B8F5001F39
:100950000ED1DFF86C8008F10C08D8F8008048EA66
:100960000008DFF85C9009F10C09C9F800800DE07F
:10097000DFF84C8008F10C08D8F8008028EA00085D
:10098000DFF83C9009F10C09C9F80080521CD1F83D
:10099000008028FA02F8B8F1000F7FF489AEBDE8B4
:1009A000F88700000000111000100240000801400C
:1009B000000C0140001001400014014008000140FB
:1009C0000004014001480068704700000C0000204E
:1009D000014691F83D00704770B504460CB90120FE
:1009E00070BD94F83D0028B9002084F83C002046F2
:1009F00000F03EFB242084F83D002068006820F0D1
:100A00000100216808602068006840F40040216807
:100A100008602068006820F400402168086000F049
:100A200019FD05465C496068884206D85B488542E6
:100A300001D2012007E0002005E05948854201D29B
:100A4000012000E00020012800D1C9E75548B5FB8E
:100A5000F0F62068406820F03F003043216848608D
:100A60004D496068884201D8701C07E04FF49670C9
:100A700070434FF47A71B0FBF1F0401C2168096AB1
:100A800021F03F01084321680862434960688842B9
:100A900014D8681E61684900B0FBF1F0401CC0F337
:100AA0000B00042801D204203DE0681E6168490063
:100AB000B0FBF1F0401CC0F30B0034E0A06838B983
:100AC000681E616801EB4101B0FBF1F0401C0AE0D7
:100AD000681E616801EBC10202EB0111B0FBF1F08D
:100AE000401C40F48040C0F30B0008B901201AE01C
:100AF000A06848B9681E616801EB4101B0FBF1F0E4
:100B0000401CC0F30B000CE0681E616801EBC102E1
:100B100002EB0111B0FBF1F0401CC0F30B0040F4FC
:100B2000804040F400402168C9694CF6FF7291434F
:100B300008432168C861D4E90701084321680968AE
:100B400021F0C001084321680860D4E9031008437C
:100B50002168896848F2FF32914308432168886020
:100B6000D4E9050108432168C96821F0FF01084361
:100B70002168C8602068006840F0010021680860B2
:100B800000202064202084F83D000020206384F8A9
:100B90003E0000BF24E70000A086010080841E0004
:100BA00000093D0040420F002DE9FC4704468946FC
:100BB000174698460A9E00200190FFF703FF05465E
:100BC00094F83D0020286FD119230122C8492046FE
:100BD000009501F073FA10B10220BDE8FC8700BF58
:100BE00094F83C00012801D10220F6E7012084F8A6
:100BF0003C0000BF2068006800F0010028B92068B0
:100C0000006840F00100216808602068006820F456
:100C1000006021680860222084F83D00102084F8DC
:100C20003E00002020646762A4F82A80608D208541
:100C3000B048E0622B4632464946204601F014F99E
:100C400008B10120C9E7208D88B900BF00200090BD
:100C500020684069009020688069009000BF00BF54
:100C60002068006840F40070216808604BE0208D27
:100C700001281AD12068006820F48060216808608B
:100C800072B600BF00200090206840690090206884
:100C90008069009000BF00BF2068006840F40070C9
:100CA0002168086062B62EE020E1208D022819D16B
:100CB0002068006840F400602168086072B600BFD8
:100CC00000200090206840690090206880690090B2
:100CD00000BF00BF2068006820F4806021680860C1
:100CE00062B610E02068006840F480602168086007
:100CF00000BF002000902068406900902068806953
:100D0000009000BF00BFE2E0208D03287ED8208D38
:100D1000012815D12A463146204601F074FA08B15F
:100D200001205AE720680069616A0870606A401C07
:100D30006062208D401E2085608D401E6085C6E06B
:100D4000208D02282CD1334600226B492046009585
:100D500001F0B4F908B101203FE772B620680068DD
:100D600040F400702168086020680069616A0870BA
:100D7000606A401C6062208D401E2085608D401E90
:100D8000608562B620680069616A0870606A401C0C
:100D90006062208D401E2085608D401E608596E03B
:100DA0003346002254492046009501F087F908B1E6
:100DB000012012E72068006820F480602168086044
:100DC00072B620680069616A0870606A401C6062DF
:100DD000208D401E2085608D401E6085474800683C
:100DE0001921B0FBF1F04FF47A71B0FBF1F0C0EBD8
:100DF000C00000EB8000019000BF0198401E0190F0
:100E00000198A8B900202063202000E038E084F891
:100E10003D00002084F83E00206C40F0200020645B
:100E200062B600BF002084F83C0000BF0120D4E679
:100E300020684069C0F380000028DED02068006888
:100E400040F400702168086020680069616A0870D9
:100E5000606A401C6062208D401E2085608D401EAF
:100E6000608562B620680069616A0870606A401C2B
:100E70006062208D401E2085608D401E608526E0CA
:100E80002A463146204601F0BEF908B10120A4E609
:100E900020680069616A0870606A401C6062208D89
:100EA000401E2085608D401E608520684069C0F32B
:100EB000800060B120680069616A0870606A401C47
:100EC0006062208D401E2085608D401E6085208DD3
:100ED00000287FF419AF202084F83D00002084F81A
:100EE0003E0000BF84F83C0000BF76E6022074E6B6
:100EF000020010000000FFFF0400010018000020A5
:100F00002DE9F8430446894616461F46DDF8208041
:100F1000FFF758FD054694F83D0020287ED119239F
:100F2000012251492046009501F0C8F810B1022075
:100F3000BDE8F88300BF94F83C00012801D10220ED
:100F4000F6E7012084F83C0000BF2068006800F04C
:100F5000010028B92068006840F00100216808609D
:100F60002068006820F4006021680860212084F86F
:100F70003D00102084F83E000020206466626785F2
:100F8000608D20853948E0622B464246494620461E
:100F900001F006F808B10120CAE700BF0020009068
:100FA00020684069009020688069009000BF00BF01
:100FB00044E02A464146204601F065F950B1206CD4
:100FC000042805D12068006840F40070216808609A
:100FD0000120ADE7606A007821680861606A401C02
:100FE0006062608D401E6085208D401E20852068D7
:100FF0004069C0F3800070B1208D60B1606A0078F4
:1010000021680861606A401C6062608D401E6085D6
:10101000208D401E20852A46414600E022E02046E1
:1010200001F01EF850B1206C042805D1206800683A
:1010300040F4007021680860012079E7208D0028C5
:10104000B7D12068006840F4007021680860202053
:1010500084F83D00002084F83E0000BF84F83C0086
:1010600000BF65E7022063E7020010000000FFFFF9
:1010700010B586B0044625492068884244D100BF97
:101080002348C06940F400102149C8610846C0697E
:1010900000F40010019000BF00BF00BF0846806947
:1010A00040F0080088610846806900F0080001905F
:1010B00000BF00BF00BF0846806940F0080088619B
:1010C0000846806900F00800019000BF00BF402082
:1010D000029012200390032005900020049002A9A2
:1010E0000C48FFF7DFFA8020029002A90948FFF7B9
:1010F000D9FA0748006940F400100549086108461C
:10110000006920F40010086106B010BD00540040D2
:1011100000100240000C01400348006803490978B0
:1011200008440149086070470C00002014000020AA
:1011300010B50848006840F0100006490860032018
:1011400000F0A8F80F2000F007F800F02BF80020BE
:1011500010BD00000020024070B504460E48007823
:101160004FF47A71B1FBF0F00C490968B1FBF0F56E
:10117000284600F00BFC08B1012070BD102C07D2EE
:1011800000222146501E00F047F80548046001E0A7
:101190000120F2E70020F0E71400002018000020F2
:1011A0001000002008B500BF1148806940F0010020
:1011B0000F4988610846806900F00100009000BF77
:1011C00000BF00BF0846C06940F08050C8610846B3
:1011D000C06900F08050009000BF00BF00BF05490B
:1011E000486820F0E06040F08060486000BF08BDC3
:1011F000001002400000014001460846002809DBBB
:1012000000F01F0301229A4043099B0003F1E023F1
:10121000C3F8002100BF70472DE9F05F80460D46FE
:101220001646002701F0C2FA074639462A463346D9
:1012300001F00700C0F1070ABAF1040F02D94FF01C
:10124000040A01E0C0F1070AD14600F1040ABAF12C
:10125000070F02D24FF0000A01E0A0F1030AD446C2
:101260004FF0010A0AFA09FAAAF1010A0AEA020A87
:101270000AFA0CFA4FF0010B0BFA0CFBABF1010B65
:101280000BEA030B4AEA0B042146404601F096FAAA
:10129000BDE8F09F00BF00F00702064B19684FF64B
:1012A000FF031940044B0B4343EA0221014B196031
:1012B00000BF70470CED00E00000FA0570B5044671
:1012C0000D460CB9012070BD5A48006800F00700B7
:1012D000A8420ED25748006820F00700284355491D
:1012E00008600846006800F00700A84201D001200D
:1012F000E9E7207800F0020002281DD1207800F0F4
:101300000400042805D14C48406840F4E0604A4994
:101310004860207800F00800082805D14648406859
:1013200040F46050444948604348406820F0F00071
:10133000A168084340494860207800F0010078B374
:101340006068012806D13C48006800F4003090B97C
:101350000120B8E76068022806D13748006800F02D
:10136000007040B90120AEE73348006800F0020089
:1013700008B90120A7E73048406820F00300616801
:1013800008432D494860FFF71DFB064609E0FFF7BB
:1013900019FB801B41F28831884202D9032092E771
:1013A00007E02548406800F00C006168B0EB810F51
:1013B000EDD12048006800F00700A8420ED91D4872
:1013C000006820F0070028431A49086008460068B2
:1013D00000F00700A84201D0012074E7207800F057
:1013E0000400042807D11448406820F4E060E16854
:1013F000084311494860207800F00800082808D107
:101400000D48406820F46050216940EAC1000A4953
:10141000486000F03FF808494968C1F30311074AE2
:10142000515CC8400649086006480068FFF794FE12
:10143000002048E70020024000100240F828000881
:1014400018000020100000200148006870470000CC
:101450001800002000B5FFF7F7FF04494968C1F301
:101460000221034A515CC84000BD00000010024048
:101470000829000800B5FFF7E7FF04494968C1F3F0
:10148000C221034A515CC84000BD00000010024068
:1014900008290008F0B585B00FF26C0C9CE8E0104C
:1014A00001A8A0E8E0101CA52D68009500210022ED
:1014B000002300240020194D696801F00C05F5B1E6
:1014C000042D02D0082D19D101E0154819E001AD15
:1014D000C1F38346AC5D01F4803555B10F4D6D68A5
:1014E000C5F340451DF805200D4D6543B5FBF2F3EE
:1014F00002E00C4D04FB05F3184602E000BF08486B
:1015000000BF00BF05B0F0BD0203040506070809CF
:101510000A0B0C0D0E0F101001020000001002400B
:1015200000127A0000093D00F8B504460CB901200C
:10153000F8BD207800F00100002878D0F848406815
:1015400000F00C0004280CD0F548406800F00C00B6
:10155000082811D1F248406800F48030B0F5803F8F
:101560000AD1EF48006800F4003000285FD06068BE
:1015700000285CD10120DBE700BF6068B0F5803F48
:1015800006D1E748006840F48030E549086028E06B
:10159000606858B9E248006820F48030E04908608B
:1015A0000846006820F4802008601AE06068B0F502
:1015B000A02F0BD1DA48006840F48020D849086099
:1015C0000846006840F4803008600AE0D4480068AB
:1015D00020F48030D24908600846006820F480205A
:1015E000086000BF606888B1FFF7ECF9054606E0C7
:1015F000FFF7E8F9401B642801D9032098E7C848A1
:10160000006800F400300028F2D010E0FFF7DAF9AB
:10161000054606E0FFF7D6F9401B642801D90320F0
:1016200086E7BF48006800F400300028F2D1207837
:1016300000F00200022857D1B948406800F00C00C1
:1016400050B1B748406800F00C00082818D1B448E1
:10165000406800F4803098B9B148006800F002009A
:1016600020B12069012801D0012061E7AC48006861
:1016700020F0F800616940EAC100A949086033E040
:101680002069E8B10120A7490860FFF79BF90546EA
:1016900006E0FFF797F9401B022801D9032047E72E
:1016A0009F48006800F002000028F2D09C480068C3
:1016B00020F0F800616940EAC1009949086013E030
:1016C000002098490860FFF77DF9054606E0FFF71E
:1016D00079F9401B022801D9032029E790480068C6
:1016E00000F002000028F2D1207800F0080008285D
:1016F0002DD1A069B8B101208B490860FFF762F9CC
:10170000054606E0FFF75EF9401B022801D90320D9
:101710000EE78348406A00F002000028F2D0012062
:1017200000F062FE13E000207F490860FFF74AF9ED
:10173000054606E0FFF746F9401B022801D90320C1
:10174000F6E67748406A00F002000028F2D12078DF
:1017500000F00400042873D100277148C06900F02C
:10176000805070B900BF6E48C06940F080506C492D
:10177000C8610846C06900F08050009000BF00BFFB
:1017800001276A48006800F48070B0B967480068B3
:1017900040F4807065490860FFF714F9054606E0DB
:1017A000FFF710F9401B642801D90320C0E65F4809
:1017B000006800F480700028F2D000BFE0680128C3
:1017C00006D15748006A40F001005549086227E0F9
:1017D000E06858B95248006A20F001005049086298
:1017E0000846006A20F00400086219E0E068052855
:1017F0000BD14B48006A40F0040049490862084692
:10180000006A40F0010008620AE04548006A20F0E2
:101810000100434908620846006A20F0040008629B
:1018200000BFE068A0B1FFF7CDF8054609E0FFF77B
:10183000C9F8401B41F28831884202D9032077E67B
:1018400022E03748006A00F002000028EFD012E0E2
:10185000FFF7B8F8054608E0FFF7B4F8401B41F27F
:101860008831884201D9032062E62D48006A00F0E1
:1018700002000028F0D1012F05D12948C06920F0CD
:1018800080502749C86100BFE069C8B32448406858
:1018900000F00C00082860D0E069022848D1002040
:1018A00020490866FFF78EF8054606E0FFF78AF83C
:1018B000401B022801D903203AE61948006800F0CD
:1018C00000700028F2D1206AB0F5803F07D114489B
:1018D000406820F40030A168084311494860D4E909
:1018E000080108430E49496821F4741108430C4962
:1018F000486001200B490866FFF764F8054607E0D9
:101900003DE0FFF75FF8401B022801D903200FE6F6
:101910000348006800F000700028F2D02FE00000BB
:101920000010024000004242800442420070004029
:10193000002014490866FFF745F8054606E0FFF762
:1019400041F8401B022801D90320F1E50E48006848
:1019500000F000700028F2D111E0E069012800D108
:10196000E6E50948466806F48031206A814204D1E0
:1019700006F47011606A814201D00120D8E5002090
:10198000D6E50000000042420010024070B5044657
:101990002546681EB0F1807F01D301200FE0681E4C
:1019A0004FF0E02148610F214FF0FF3000F006FFBB
:1019B00000204FF0E021886107200861002070BD01
:1019C000704770472DE9F84F044620680568206885
:1019D000C668206847694FF00009CA4605F00F093C
:1019E000B9F1000F0AD105F0200038B106F020004F
:1019F00020B1204600F07AFDBDE8F88FB9F1000F64
:101A000071D007F0010018B906F4907000286AD070
:101A100005F0010030B106F4807018B1206C40F080
:101A20000100206405F0040030B107F0010018B196
:101A3000206C40F00200206405F0020030B107F095
:101A4000010018B1206C40F00400206405F008008B
:101A500048B106F0200010B907F0010018B1206C61
:101A600040F008002064206C68B305F0200028B125
:101A700006F0200010B1204600F038FD20684069D3
:101A8000C0F3801A206C00F0080010B9BAF1000F02
:101A900022D0204600F0FFFC2068406900F04000A2
:101AA000B0B12068406920F0400021684861A06B17
:101AB00050B15648A16B4863A06BFEF76FFD10B1A3
:101AC000A06B416B88470CE02046FFF77AFF08E0E7
:101AD0002046FFF776FF04E02046FFF772FF002064
:101AE000206489E7FFE7206B012878D105F010001A
:101AF000002874D006F01000002870D000BF00202D
:101B0000009020680068009020684068009000BF46
:101B100000BF2068406900F04000C0B3A06B0068BF
:101B200040681FFA80F8B8F1000F2FD0A08D404513
:101B30002CDDA4F82E80A06B806920281FD020689F
:101B4000C06820F480702168C8602068406920F077
:101B50000100216848612068406920F04000216848
:101B60004861202084F83E00002020632068C0687F
:101B700020F010002168C860A06BFEF7E3FCA08D88
:101B8000E28D801A81B22046FFF71AFF34E7FFE7A3
:101B9000A08DE18D401A1FFA80F8E08DE8B1B8F110
:101BA000000F1AD02068C06820F490702168C860C7
:101BB0002068406920F0010021684861202084F8F5
:101BC0003E00002020632068C06820F010002168DB
:101BD000C86041462046FFF7F3FE0DE7FFE705F03A
:101BE000800030B106F0800018B1204600F06EFD94
:101BF00002E705F0400030B106F0400018B1204681
:101C000000F064FCF8E600BFF6E60000832400085C
:101C100010B504460CB9012010BDA06900B100E068
:101C200000BF94F83D0028B9002084F83C0020460D
:101C300000F028F8242084F83D002068C06820F4D3
:101C400000502168C860204600F0C2FC206800698E
:101C500020F49040216808612068406920F02A0043
:101C6000216848612068C06840F400502168C8605D
:101C700000202064202084F83D0084F83E000020ED
:101C8000CAE7000010B586B0044600200290039019
:101C9000049005901A49206888422ED100BF194847
:101CA000806940F48040174988610846806900F4E3
:101CB0008040019000BF00BF00BF0846806940F02F
:101CC000040088610846806900F00400019000BFAC
:101CD00000BF48150290022003900320059002A93E
:101CE0000948FEF7DFFC4FF480600290002003906B
:101CF000049002A90448FEF7D5FC06B010BD000010
:101D000000380140001002400008014070472DE9F2
:101D1000F84F04460E46174699464FF0000A94F8CD
:101D20003D0020285AD106B117B90120BDE8F88F2F
:101D300000BF94F83C00012801D10220F6E7012001
:101D400084F83C0000BF00202064212084F83D007E
:101D5000FEF738FE8246A784E784A068B0F5805F6E
:101D600004D1206910B90025B04602E035464FF095
:101D7000000800BF002084F83C0000BF1BE0534671
:101D8000002280212046CDF8009000F0CFFC08B161
:101D90000320CBE745B9B8F80000C0F3080021687C
:101DA000486008F1020803E02878216848606D1C4B
:101DB000E08C401EE084E08C0028E0D153460022F5
:101DC00040212046CDF8009000F0B0FC08B103207F
:101DD000ACE7202084F83D000020A7E70220A5E71B
:101DE000704700BFFEE7000010B50C480C490860C2
:101DF0000C48486000210A488160C16101624FF4CB
:101E000080410161002141610A21C160002181619D
:101E1000FEF7E2FD08B1FEF792FB10BD0054004052
:101E200060000020801A0600014608684069C0F37F
:101E30008020B0B16FF480600A68506100200863B0
:101E4000202081F83D00002081F83E00086C40F021
:101E50000400086400BF002081F83C0000BF01209E
:101E600070470020FCE700002DE9F84304460D46CA
:101E700090461E46E76A2068006840F4806021684A
:101E80000860082F04D0012F02D017F5803F06D13B
:101E90002068006840F480702168086008E0206BCA
:101EA000112805D12068006840F48070216808601E
:101EB000434600224FF001112046009600F0FEF844
:101EC00060B12068006800F48070B0F5807F02D1B6
:101ED0004FF4007020640320BDE8F8832069B0F55A
:101EE000804F05D1E8B240F001002168086149E067
:101EF00005F44070F02141EAE010216808613346A2
:101F000042462649204600F01CF908B10120E3E7CB
:101F1000E8B221680861334642462049891F2046BD
:101F200000F00FF908B10120D6E700BF00200090B3
:101F300020684069009020688069009000BF00BF61
:101F40002068006840F480702168086043460022E1
:101F50004FF001112046009600F0B0F858B120680B
:101F6000006800F48070B0F5807F02D14FF40070FB
:101F700020640320B0E705F44070F12141EAE0104D
:101F800021680861334642460449891F204600F013
:101F9000D8F808B101209FE700209DE70800010064
:101FA0002DE9F84304460D4617469846E66A082E82
:101FB00004D0012E02D016F5803F06D120680068BB
:101FC00040F480702168086008E0206B122805D179
:101FD0002068006840F48070216808603B46002259
:101FE0004FF001112046CDF8008000F067F860B195
:101FF0002068006800F48070B0F5807F02D14FF453
:10200000007020640320BDE8F8832069B0F5804F9C
:1020100004D105F0FE002168086112E005F440706B
:10202000F02141EAE0102168086143463A460B4935
:10203000204600F086F808B10120E4E7E8B2216804
:10204000086143463A460549891F204600F079F861
:1020500008B10120D7E70020D5E700000800010003
:1020600070B504460D46164620E02046FFF7DCFE1C
:1020700008B1012070BD681CC0B1FEF7A3FC801B35
:10208000A84200D895B900202063202084F83D00A4
:10209000002084F83E00206C40F02000206400BF47
:1020A000002084F83C0000BF0120E3E7206840697D
:1020B000C0F380000028D8D00020DBE72DE9F041F4
:1020C00004460D4617461E46DDF818801CE0701CBD
:1020D000D0B1FEF777FCA0EB0800B04200D89EB963
:1020E00000202063202084F83D00002084F83E007A
:1020F000206C40F02000206400BF002084F83C00E9
:1021000000BF0120BDE8F081C5F3074001280AD1D6
:1021100020684069A9B20840A9B2884201D10120D3
:102120000BE0002009E020688069A9B20840A9B24C
:10213000884201D1012000E00020B842C7D0002031
:10214000E0E72DE9F04104460D4616461F463DE006
:1021500020684069C0F38020E8B12068006840F43E
:102160000070216808606FF4806021684861002079
:102170002063202084F83D00002084F83E00206C7D
:1021800040F00400206400BF002084F83C0000BF41
:102190000120BDE8F081701CC0B1FEF713FCC01B2C
:1021A000B04200D896B900202063202084F83D007A
:1021B000002084F83E00206C40F02000206400BF26
:1021C000002084F83C0000BF0120E2E7C5F307408F
:1021D00001280AD120684069A9B20840A9B2884202
:1021E00001D101200BE0002009E020688069A9B23C
:1021F0000840A9B2884201D1012000E00020002857
:10220000A6D00020C5E770B504460D46164632E05C
:1022100020684069C0F30010A0B16FF01000216881
:10222000486100202063202084F83D00002084F8CD
:102230003E00206C206400BF002084F83C0000BFFA
:10224000012070BDFEF7BEFB801BA84200D895B9E7
:1022500000202063202084F83D00002084F83E0008
:10226000206C40F02000206400BF002084F83C0077
:1022700000BF0120E5E720684069C0F38010002816
:10228000C6D00020DDE770B504460D46164620E0B6
:102290002046FFF7C9FD08B1012070BD681CC0B120
:1022A000FEF790FB801BA84200D895B90020206360
:1022B000202084F83D00002084F83E00206C40F08F
:1022C0002000206400BF002084F83C0000BF0120F3
:1022D000E3E720684069C0F3C0100028D8D0002090
:1022E000DBE7000000B585B000200190029003906C
:1022F000049000BF1E48806940F020001C4988619E
:102300000846806900F02000009000BF00BF00BFB9
:102310000846806940F0040088610846806900F042
:102320000400009000BF00BF00BF0846806940F075
:10233000080088610846806900F00800009000BF2E
:1023400000BF012001900B4802900020039001A9DA
:102350000948FEF7A7F940200190122002900320BF
:10236000049001A90548FEF79DF905B000BD0000E5
:10237000001002400000111000080140000C014054
:1023800010B5002211460620FEF746FF0620FEF794
:1023900033FF002211462520FEF73EFF2520FEF7E1
:1023A0002BFF10BD10B50B480B4908604FF4E1300E
:1023B0004860002108488160C16001610C214161D1
:1023C00000218161C161FFF723FC08B1FEF7B7F876
:1023D00010BD0000003801401C00002000BFFEE7D7
:1023E00000BFFEE77047000008B508490968C90842
:1023F0004FF47A72B1FBF2F14143009100BF00BF8C
:1024000000994A1E00920029F9D108BD1800002049
:10241000704710B5FEF780FE10BD00B58FB02821C3
:1024200005A8FDF772FF14216846FDF76EFF012035
:1024300005900004069000200790012009900220DA
:102440000C90C1030D914FF4E0110E9105A8FFF718
:102450006BF808B1FEF773F80F200090022001908E
:10246000002002904FF4806003900020049002212D
:102470006846FEF723FF08B1FEF761F80FB000BD14
:10248000704770B505466C6A0020E085E084204600
:10249000FFF797FA70BD0168C96821F4907102686E
:1024A000D1600168496921F0010102685161016B45
:1024B000012905D10168C96821F010010268D160C5
:1024C000202180F83E1000210163704710B50446BA
:1024D0002068C06820F040002168C860202084F88F
:1024E0003D002046FFF77CFC002010BDF8B50446F7
:1024F00094F83E00222869D1A068B0F5805F0CD125
:10250000206950B90025A66A20684068C0F3080019
:102510003080A06A801CA06215E0A56A0026A06831
:10252000B0F5805F03D0A06828B9206918B9206889
:102530004068287004E02068406800F07F00287040
:10254000A06A401CA062E08D401E80B2E085A8BB5E
:102550002068C06820F020002168C8602068C0683A
:1025600020F480702168C8602068406920F0010074
:1025700021684861202084F83E00206B01281ED18C
:10258000002020632068C06820F010002168C86027
:102590002068006800F0100010280AD100BF002059
:1025A000009020680068009020684068009000BF9C
:1025B00000BFA18D2046FFF703FA03E004E02046A8
:1025C000FFF7A4FB0020F8BD0020FCE70220FAE79B
:1025D00070B504462168096921F44051E26811434D
:1025E000226811612269A1681143626941EA02050A
:1025F0002168C96841F20C62914329432268D16085
:102600002168496921F44071A2691143226851612E
:102610002D4A2168914202D1FEF72CFF01E0FEF71E
:1026200019FF00EBC00101EB001162689200B1FBE1
:10263000F2F100EBC00202EB001263689B00B2FBF8
:10264000F3F26423B2FBF3F202EBC20303EB0212D8
:10265000A1EB8201322202EB01116422B1FBF2F103
:1026600001F0F00100EBC00202EB001263689B0076
:10267000B2FBF3F26423B2FBF3F201EB021200EBC4
:10268000C00101EB001163689B00B1FBF3F100EBAB
:10269000C00303EB00136668B600B3FBF6F36426D1
:1026A000B3FBF6F303EBC30606EB0313A1EB8301C5
:1026B000322303EB01116423B1FBF3F101F00F01AD
:1026C00011442268916070BD00380140014691F8C4
:1026D0003D00212828D18868B0F5805F0BD10869BA
:1026E00048B90A6A1088C0F308000B685860086A85
:1026F000801C086205E00B6A581C086218780B6899
:102700005860C88C401E80B2C88458B90868C06838
:1027100020F080000B68D8600868C06840F0400076
:102720000B68D860002070470220FCE72DE9F041DB
:1027300004460D4617469846069E21E0701CF8B1E7
:102740002EB1FEF73FF9A0EB0800B04218D920687F
:10275000C06820F4D0702168C8602068406920F00B
:10276000010021684861202084F83D0084F83E0083
:1027700000BF002084F83C0000BF0320BDE8F081CA
:10278000206800682840A84201D1012000E0002014
:10279000B842D3D00020F1E710B50248FFF712F994
:1027A00010BD00001C00002000BFFEE702480068CA
:1027B000C0F30220704700000CED00E010B50028C7
:1027C00004DB0A07130E054A135406E00A07140E29
:1027D000034A00F00F031B1FD45410BD00E400E0B7
:1027E00018ED00E07047000013B50C460A230122E3
:1027F00069460248FFF78BFA00981CBD1C000020B8
:102800000448007820B10020024908700120704778
:102810000020FCE7000000208AB014221E4905A811
:10282000FDF741FD14216846FDF76FFDFEF780FCC2
:10283000FFF7F3FDFFF7D8FAFFF754FDFFF7B2FDFE
:10284000FFF79EFD15A0FDF7C5FC18A0FDF7C2FC23
:1028500012A0FDF7BFFC1EE0FFF7D2FFD8B1142293
:1028600005A90020FDF750FE0120FDF7EFFE05A9A8
:1028700012A0FDF7AFFC142269460020FDF712FEFE
:102880000120FDF7E3FE694611A0FDF7A3FC14212A
:102890006846FDF73AFDDFE7E42800082A2A2A2ADD
:1028A0002A2A2A2A2A2A2A2A2A0D0A0049324320B9
:1028B0005465737420320D0A0000000045455052E3
:1028C0004F4D2057726974653A25730D0A00000058
:1028D000454550524F4D20526561643A25730D0AAB
:1028E0000000000048656C6C6F2049324300000016
:1028F00000000000000000000000000000000000D8
:102900000102030406070809000000000102030495
:1029100030290008000000201C00000028010008E9
:102920004C2900081C000020FC060000440100089F
:102930000000000000000000000000000000000097
:0C29400010000000010000000024F40062
:04000005080000ED02
:00000001FF
